{
  "contractName": "Migrations",
  "abi": [
    {
      "constant": true,
      "inputs": [],
      "name": "last_completed_migration",
      "outputs": [
        {
          "name": "",
          "type": "uint256"
        }
      ],
      "payable": false,
      "stateMutability": "view",
      "type": "function"
    },
    {
      "constant": true,
      "inputs": [],
      "name": "owner",
      "outputs": [
        {
          "name": "",
          "type": "address"
        }
      ],
      "payable": false,
      "stateMutability": "view",
      "type": "function"
    },
    {
      "inputs": [],
      "payable": false,
      "stateMutability": "nonpayable",
      "type": "constructor"
    },
    {
      "constant": false,
      "inputs": [
        {
          "name": "_newBroker",
          "type": "address"
        }
      ],
      "name": "addBroker",
      "outputs": [],
      "payable": false,
      "stateMutability": "nonpayable",
      "type": "function"
    },
    {
      "constant": false,
      "inputs": [],
      "name": "addBrokerStake",
      "outputs": [],
      "payable": true,
      "stateMutability": "payable",
      "type": "function"
    },
    {
      "constant": false,
      "inputs": [
        {
          "name": "_phoneNumber",
          "type": "string"
        }
      ],
      "name": "fundUser",
      "outputs": [],
      "payable": true,
      "stateMutability": "payable",
      "type": "function"
    },
    {
      "constant": false,
      "inputs": [
        {
          "name": "_from",
          "type": "string"
        },
        {
          "name": "_to",
          "type": "string"
        },
        {
          "name": "_amount",
          "type": "uint256"
        }
      ],
      "name": "sendFundsToPhone",
      "outputs": [],
      "payable": false,
      "stateMutability": "nonpayable",
      "type": "function"
    },
    {
      "constant": false,
      "inputs": [
        {
          "name": "_from",
          "type": "string"
        },
        {
          "name": "_to",
          "type": "address"
        },
        {
          "name": "_amount",
          "type": "uint256"
        }
      ],
      "name": "sendFundsToAddr",
      "outputs": [],
      "payable": false,
      "stateMutability": "nonpayable",
      "type": "function"
    },
    {
      "constant": false,
      "inputs": [
        {
          "name": "completed",
          "type": "uint256"
        }
      ],
      "name": "setCompleted",
      "outputs": [],
      "payable": false,
      "stateMutability": "nonpayable",
      "type": "function"
    },
    {
      "constant": false,
      "inputs": [
        {
          "name": "new_address",
          "type": "address"
        }
      ],
      "name": "upgrade",
      "outputs": [],
      "payable": false,
      "stateMutability": "nonpayable",
      "type": "function"
    }
  ],
  "bytecode": "0x60806040526000805560006001556001600655600260075534801561002357600080fd5b5033600260006101000a81548173ffffffffffffffffffffffffffffffffffffffff021916908373ffffffffffffffffffffffffffffffffffffffff160217905550610aa0806100746000396000f3fe608060405260043610610099576000357c0100000000000000000000000000000000000000000000000000000000900463ffffffff1680630900f0101461009e578063445df0ac146100ef578063653bde121461011a5780637b9799c51461020c578063836cae65146102c75780638da5cb5b14610318578063ba7deaa41461036f578063efa483bb146104d8578063fdacd576146104e2575b600080fd5b3480156100aa57600080fd5b506100ed600480360360208110156100c157600080fd5b81019080803573ffffffffffffffffffffffffffffffffffffffff16906020019092919050505061051d565b005b3480156100fb57600080fd5b50610104610606565b6040518082815260200191505060405180910390f35b34801561012657600080fd5b5061020a6004803603606081101561013d57600080fd5b810190808035906020019064010000000081111561015a57600080fd5b82018360208201111561016c57600080fd5b8035906020019184600183028401116401000000008311171561018e57600080fd5b91908080601f016020809104026020016040519081016040528093929190818152602001838380828437600081840152601f19601f820116905080830192505050505050509192919290803573ffffffffffffffffffffffffffffffffffffffff1690602001909291908035906020019092919050505061060c565b005b6102c56004803603602081101561022257600080fd5b810190808035906020019064010000000081111561023f57600080fd5b82018360208201111561025157600080fd5b8035906020019184600183028401116401000000008311171561027357600080fd5b91908080601f016020809104026020016040519081016040528093929190818152602001838380828437600081840152601f19601f820116905080830192505050505050509192919290505050610755565b005b3480156102d357600080fd5b50610316600480360360208110156102ea57600080fd5b81019080803573ffffffffffffffffffffffffffffffffffffffff1690602001909291905050506107e0565b005b34801561032457600080fd5b5061032d610829565b604051808273ffffffffffffffffffffffffffffffffffffffff1673ffffffffffffffffffffffffffffffffffffffff16815260200191505060405180910390f35b34801561037b57600080fd5b506104d66004803603606081101561039257600080fd5b81019080803590602001906401000000008111156103af57600080fd5b8201836020820111156103c157600080fd5b803590602001918460018302840111640100000000831117156103e357600080fd5b91908080601f016020809104026020016040519081016040528093929190818152602001838380828437600081840152601f19601f8201169050808301925050505050505091929192908035906020019064010000000081111561044657600080fd5b82018360208201111561045857600080fd5b8035906020019184600183028401116401000000008311171561047a57600080fd5b91908080601f016020809104026020016040519081016040528093929190818152602001838380828437600081840152601f19601f8201169050808301925050505050505091929192908035906020019092919050505061084f565b005b6104e06109bb565b005b3480156104ee57600080fd5b5061051b6004803603602081101561050557600080fd5b8101908080359060200190929190505050610a13565b005b600260009054906101000a900473ffffffffffffffffffffffffffffffffffffffff1673ffffffffffffffffffffffffffffffffffffffff163373ffffffffffffffffffffffffffffffffffffffff1614156106035760008190508073ffffffffffffffffffffffffffffffffffffffff1663fdacd5766003546040518263ffffffff167c010000000000000000000000000000000000000000000000000000000002815260040180828152602001915050600060405180830381600087803b1580156105e957600080fd5b505af11580156105fd573d6000803e3d6000fd5b50505050505b50565b60035481565b806004846040518082805190602001908083835b6020831015156106455780518252602082019150602081019050602083039250610620565b6001836020036101000a03801982511681845116808217855250505050505090500191505090815260200160405180910390205410151561075057806004846040518082805190602001908083835b6020831015156106b95780518252602082019150602081019050602083039250610694565b6001836020036101000a0380198251168184511680821785525050505050509050019150509081526020016040518091039020600082825403925050819055508173ffffffffffffffffffffffffffffffffffffffff166108fc829081150290604051600060405180830381858888f1935050505015801561073f573d6000803e3d6000fd5b508060008082825403925050819055505b505050565b346000808282540192505081905550346004826040518082805190602001908083835b60208310151561079d5780518252602082019150602081019050602083039250610778565b6001836020036101000a03801982511681845116808217855250505050505090500191505090815260200160405180910390206000828254019250508190555050565b600754600560008373ffffffffffffffffffffffffffffffffffffffff1673ffffffffffffffffffffffffffffffffffffffff1681526020019081526020016000208190555050565b600260009054906101000a900473ffffffffffffffffffffffffffffffffffffffff1681565b806004846040518082805190602001908083835b6020831015156108885780518252602082019150602081019050602083039250610863565b6001836020036101000a0380198251168184511680821785525050505050509050019150509081526020016040518091039020541015156109b657806004846040518082805190602001908083835b6020831015156108fc57805182526020820191506020810190506020830392506108d7565b6001836020036101000a038019825116818451168082178552505050505050905001915050908152602001604051809103902060008282540392505081905550806004836040518082805190602001908083835b6020831015156109755780518252602082019150602081019050602083039250610950565b6001836020036101000a0380198251168184511680821785525050505050509050019150509081526020016040518091039020600082825401925050819055505b505050565b34600160008282540192505081905550600654600560003373ffffffffffffffffffffffffffffffffffffffff1673ffffffffffffffffffffffffffffffffffffffff16815260200190815260200160002081905550565b600260009054906101000a900473ffffffffffffffffffffffffffffffffffffffff1673ffffffffffffffffffffffffffffffffffffffff163373ffffffffffffffffffffffffffffffffffffffff161415610a7157806003819055505b5056fea165627a7a72305820dcbc4cf2eb1131214df6f1b93f45f46f3f123af4c156b14f57252774cd52db050029",
  "source": "pragma solidity >=0.4.21 <0.6.0;\n\ncontract Migrations {\n\n  uint walletBalance = 0;\n  uint brokerStake = 0;\n\n  address public owner;\n  uint public last_completed_migration;\n\n  mapping (string => uint) phoneNumberToBalance;\n  mapping (address => uint) brokerStatus;\n\n  // uint brokerStatus_Banned = 0;\n  uint brokerStatus_Active = 1;\n  uint brokerStatus_PendingStake = 2;\n  // uint brokerStatus_PendingBanned = 2;\n  // uint brokerStatus_PendingActive = 3;\n\n  constructor() public {\n    owner = msg.sender;\n  }\n\n  modifier restricted() {\n    if (msg.sender == owner) _;\n  }\n\n  function addBroker(address _newBroker) \n  public\n  {\n    brokerStatus[_newBroker] = brokerStatus_PendingStake;\n  }\n\n  // TODO: Add minimum staking\n  // Must be voteable\n  // Once staked + voted = broker active\n  function addBrokerStake()\n  public payable\n  {\n    brokerStake += msg.value;\n    brokerStatus[msg.sender] = brokerStatus_Active;\n  }\n\n  // validate user exists\n  function fundUser (string memory _phoneNumber) \n  public payable\n  {\n    walletBalance += msg.value;\n    phoneNumberToBalance[_phoneNumber] += msg.value;\n  }\n\n  function sendFundsToPhone(string memory _from, string memory _to, uint _amount)\n  public\n  {\n    if (phoneNumberToBalance[_from] >= _amount) {\n      phoneNumberToBalance[_from] -= _amount;\n      phoneNumberToBalance[_to] += _amount;\n    }\n  }\n\n  function sendFundsToAddr(string memory _from, address payable _to, uint _amount)\n  public\n  {\n    if (phoneNumberToBalance[_from] >= _amount) {\n      phoneNumberToBalance[_from] -= _amount; \n      _to.transfer(_amount);\n      walletBalance -= _amount;\n    }\n  }\n\n\n\n\n\n\n\n  function setCompleted(uint completed) public restricted {\n    last_completed_migration = completed;\n  }\n\n  function upgrade(address new_address) public restricted {\n    Migrations upgraded = Migrations(new_address);\n    upgraded.setCompleted(last_completed_migration);\n  }\n  \n}\n",
  "sourcePath": "/Users/paulzietsman/sourcery/ethcape/smart-contract/contracts/Migrations.sol",
  "compiler": {
    "name": "solc",
    "version": "0.5.0+commit.1d4f565a.Emscripten.clang"
  },
  "schemaVersion": "3.0.6",
  "updatedAt": "2019-04-19T23:17:49.447Z",
  "devdoc": {
    "methods": {}
  },
  "userdoc": {
    "methods": {}
  }
}