{
  "contractName": "Thing",
  "abi": [
    {
      "constant": true,
      "inputs": [],
      "name": "owner",
      "outputs": [
        {
          "name": "",
          "type": "address"
        }
      ],
      "payable": false,
      "stateMutability": "view",
      "type": "function",
      "signature": "0x8da5cb5b"
    },
    {
      "inputs": [],
      "payable": false,
      "stateMutability": "nonpayable",
      "type": "constructor",
      "signature": "constructor"
    },
    {
      "constant": true,
      "inputs": [],
      "name": "getWalletBalance",
      "outputs": [
        {
          "name": "",
          "type": "uint256"
        }
      ],
      "payable": false,
      "stateMutability": "view",
      "type": "function",
      "signature": "0x329a27e7"
    },
    {
      "constant": true,
      "inputs": [],
      "name": "getBrokerStake",
      "outputs": [
        {
          "name": "",
          "type": "uint256"
        }
      ],
      "payable": false,
      "stateMutability": "view",
      "type": "function",
      "signature": "0x795ed513"
    },
    {
      "constant": true,
      "inputs": [
        {
          "name": "_newBroker",
          "type": "address"
        }
      ],
      "name": "getBroker",
      "outputs": [
        {
          "name": "",
          "type": "uint256"
        },
        {
          "name": "",
          "type": "uint256"
        },
        {
          "name": "",
          "type": "uint256"
        }
      ],
      "payable": false,
      "stateMutability": "view",
      "type": "function",
      "signature": "0xd1724881"
    },
    {
      "constant": false,
      "inputs": [
        {
          "name": "_newBroker",
          "type": "address"
        }
      ],
      "name": "addBroker",
      "outputs": [],
      "payable": false,
      "stateMutability": "nonpayable",
      "type": "function",
      "signature": "0x836cae65"
    },
    {
      "constant": false,
      "inputs": [],
      "name": "addBrokerStake",
      "outputs": [],
      "payable": true,
      "stateMutability": "payable",
      "type": "function",
      "signature": "0xefa483bb"
    },
    {
      "constant": true,
      "inputs": [
        {
          "name": "_phoneNumber",
          "type": "string"
        }
      ],
      "name": "getUser",
      "outputs": [
        {
          "name": "",
          "type": "uint256"
        }
      ],
      "payable": false,
      "stateMutability": "view",
      "type": "function",
      "signature": "0x31feb671"
    },
    {
      "constant": false,
      "inputs": [
        {
          "name": "_phoneNumber",
          "type": "string"
        }
      ],
      "name": "fundUser",
      "outputs": [],
      "payable": true,
      "stateMutability": "payable",
      "type": "function",
      "signature": "0x7b9799c5"
    },
    {
      "constant": false,
      "inputs": [
        {
          "name": "_from",
          "type": "string"
        },
        {
          "name": "_to",
          "type": "string"
        },
        {
          "name": "_amount",
          "type": "uint256"
        }
      ],
      "name": "sendFundsToPhone",
      "outputs": [],
      "payable": false,
      "stateMutability": "nonpayable",
      "type": "function",
      "signature": "0xba7deaa4"
    },
    {
      "constant": false,
      "inputs": [
        {
          "name": "_from",
          "type": "string"
        },
        {
          "name": "_to",
          "type": "address"
        },
        {
          "name": "_amount",
          "type": "uint256"
        }
      ],
      "name": "sendFundsToAddr",
      "outputs": [],
      "payable": false,
      "stateMutability": "nonpayable",
      "type": "function",
      "signature": "0x653bde12"
    }
  ],
  "bytecode": "0x608060405260006001556000600255600f60045560046005556003600655606460075560006009556002600a556003600b556001600c556003600d5534801561004757600080fd5b50336000806101000a81548173ffffffffffffffffffffffffffffffffffffffff021916908373ffffffffffffffffffffffffffffffffffffffff160217905550610cc8806100976000396000f3fe6080604052600436106100a4576000357c0100000000000000000000000000000000000000000000000000000000900463ffffffff16806331feb671146100a9578063329a27e714610185578063653bde12146101b0578063795ed513146102a25780637b9799c5146102cd578063836cae65146103885780638da5cb5b146103d9578063ba7deaa414610430578063d172488114610599578063efa483bb1461060c575b600080fd5b3480156100b557600080fd5b5061016f600480360360208110156100cc57600080fd5b81019080803590602001906401000000008111156100e957600080fd5b8201836020820111156100fb57600080fd5b8035906020019184600183028401116401000000008311171561011d57600080fd5b91908080601f016020809104026020016040519081016040528093929190818152602001838380828437600081840152601f19601f820116905080830192505050505050509192919290505050610616565b6040518082815260200191505060405180910390f35b34801561019157600080fd5b5061019a61068b565b6040518082815260200191505060405180910390f35b3480156101bc57600080fd5b506102a0600480360360608110156101d357600080fd5b81019080803590602001906401000000008111156101f057600080fd5b82018360208201111561020257600080fd5b8035906020019184600183028401116401000000008311171561022457600080fd5b91908080601f016020809104026020016040519081016040528093929190818152602001838380828437600081840152601f19601f820116905080830192505050505050509192919290803573ffffffffffffffffffffffffffffffffffffffff16906020019092919080359060200190929190505050610695565b005b3480156102ae57600080fd5b506102b7610836565b6040518082815260200191505060405180910390f35b610386600480360360208110156102e357600080fd5b810190808035906020019064010000000081111561030057600080fd5b82018360208201111561031257600080fd5b8035906020019184600183028401116401000000008311171561033457600080fd5b91908080601f016020809104026020016040519081016040528093929190818152602001838380828437600081840152601f19601f820116905080830192505050505050509192919290505050610840565b005b34801561039457600080fd5b506103d7600480360360208110156103ab57600080fd5b81019080803573ffffffffffffffffffffffffffffffffffffffff1690602001909291905050506108cc565b005b3480156103e557600080fd5b506103ee61096e565b604051808273ffffffffffffffffffffffffffffffffffffffff1673ffffffffffffffffffffffffffffffffffffffff16815260200191505060405180910390f35b34801561043c57600080fd5b506105976004803603606081101561045357600080fd5b810190808035906020019064010000000081111561047057600080fd5b82018360208201111561048257600080fd5b803590602001918460018302840111640100000000831117156104a457600080fd5b91908080601f016020809104026020016040519081016040528093929190818152602001838380828437600081840152601f19601f8201169050808301925050505050505091929192908035906020019064010000000081111561050757600080fd5b82018360208201111561051957600080fd5b8035906020019184600183028401116401000000008311171561053b57600080fd5b91908080601f016020809104026020016040519081016040528093929190818152602001838380828437600081840152601f19601f82011690508083019250505050505050919291929080359060200190929190505050610993565b005b3480156105a557600080fd5b506105e8600480360360208110156105bc57600080fd5b81019080803573ffffffffffffffffffffffffffffffffffffffff169060200190929190505050610b56565b60405180848152602001838152602001828152602001935050505060405180910390f35b610614610c31565b005b60006003826040518082805190602001908083835b602083101515610650578051825260208201915060208101905060208303925061062b565b6001836020036101000a0380198251168184511680821785525050505050509050019150509081526020016040518091039020549050919050565b6000600154905090565b806003846040518082805190602001908083835b6020831015156106ce57805182526020820191506020810190506020830392506106a9565b6001836020036101000a0380198251168184511680821785525050505050509050019150509081526020016040518091039020541015151561070f57600080fd5b600b54600860003373ffffffffffffffffffffffffffffffffffffffff1673ffffffffffffffffffffffffffffffffffffffff1681526020019081526020016000206002015414151561076157600080fd5b806003846040518082805190602001908083835b60208310151561079a5780518252602082019150602081019050602083039250610775565b6001836020036101000a0380198251168184511680821785525050505050509050019150509081526020016040518091039020600082825403925050819055508173ffffffffffffffffffffffffffffffffffffffff166108fc829081150290604051600060405180830381858888f19350505050158015610820573d6000803e3d6000fd5b5080600160008282540392505081905550505050565b6000600254905090565b34600160008282540192505081905550346003826040518082805190602001908083835b6020831015156108895780518252602082019150602081019050602083039250610864565b6001836020036101000a03801982511681845116808217855250505050505090500191505090815260200160405180910390206000828254019250508190555050565b6000809054906101000a900473ffffffffffffffffffffffffffffffffffffffff1673ffffffffffffffffffffffffffffffffffffffff163373ffffffffffffffffffffffffffffffffffffffff16141561096b57600d54600860008373ffffffffffffffffffffffffffffffffffffffff1673ffffffffffffffffffffffffffffffffffffffff168152602001908152602001600020600201819055505b50565b6000809054906101000a900473ffffffffffffffffffffffffffffffffffffffff1681565b806003846040518082805190602001908083835b6020831015156109cc57805182526020820191506020810190506020830392506109a7565b6001836020036101000a03801982511681845116808217855250505050505090500191505090815260200160405180910390205410151515610a0d57600080fd5b600b54600860003373ffffffffffffffffffffffffffffffffffffffff1673ffffffffffffffffffffffffffffffffffffffff16815260200190815260200160002060020154141515610a5f57600080fd5b806003846040518082805190602001908083835b602083101515610a985780518252602082019150602081019050602083039250610a73565b6001836020036101000a038019825116818451168082178552505050505050905001915050908152602001604051809103902060008282540392505081905550806003836040518082805190602001908083835b602083101515610b115780518252602082019150602081019050602083039250610aec565b6001836020036101000a038019825116818451168082178552505050505050905001915050908152602001604051809103902060008282540192505081905550505050565b6000806000600860008573ffffffffffffffffffffffffffffffffffffffff1673ffffffffffffffffffffffffffffffffffffffff16815260200190815260200160002060020154600860008673ffffffffffffffffffffffffffffffffffffffff1673ffffffffffffffffffffffffffffffffffffffff16815260200190815260200160002060010154600860008773ffffffffffffffffffffffffffffffffffffffff1673ffffffffffffffffffffffffffffffffffffffff168152602001908152602001600020600001549250925092509193909250565b60045434141515610c4157600080fd5b34600260008282540192505081905550600c54600860003373ffffffffffffffffffffffffffffffffffffffff1673ffffffffffffffffffffffffffffffffffffffff1681526020019081526020016000206002018190555056fea165627a7a72305820aae9add46f45e9fb14ebc5cc2bcfb5a1da3d935b19dd86e75e31bb233a1a565d0029",
  "source": "pragma solidity >=0.4.21 <0.6.0;\n\ncontract Thing {\n\n  struct BrokerStatus {\n      uint expiry;\n      uint votes;\n      uint status;\n  }\n\n  address public owner;\n\n  uint walletBalance = 0;\n  uint brokerStake = 0;\n\n  mapping (string => uint) phoneNumberToBalance;\n  \n  uint STAKE = 15;\n  uint NEW_BROKER_VOTES_REQUIRE = 4;\n  uint TRANSACTION_VOTES_REQUIRE = 3;\n  uint TRANSACTION_TIMEOUT = 100;\n\n  mapping (address => BrokerStatus) brokerStatus;\n\n  uint brokerStatus_Banned = 0;\n  uint brokerStatus_BannedPending = 2;\n\n  uint brokerStatus_Active = 3;\n  uint brokerStatus_ActivePendingVote = 1;\n  uint brokerStatus_ActivePendingStake = 3;\n\n  constructor() public {\n    owner = msg.sender;\n  }\n\n  modifier restricted() {\n    if (msg.sender == owner) _;\n  }\n\n\n  function getWalletBalance()\n  public view  \n  returns (uint)\n  {\n    return walletBalance;\n  }\n\n  function getBrokerStake()\n  public view  \n  returns (uint)\n  {\n    return brokerStake;\n  }\n\n// =====================================\n// Broker\n// =====================================\n\n  function getBroker(address _newBroker)\n  public view  \n  returns (uint,uint, uint)\n  {\n    return (brokerStatus[_newBroker].status, brokerStatus[_newBroker].votes ,brokerStatus[_newBroker].expiry );\n  }\n\n  function addBroker(address _newBroker)\n  restricted public \n  {\n    brokerStatus[_newBroker].status = brokerStatus_ActivePendingStake;\n  }\n\n\n  // TODO: Add minimum staking\n  // Must be voteable\n  // Check for broker status pending stake\n  function addBrokerStake()\n  public payable\n  {\n    require(msg.value == STAKE);\n    brokerStake += msg.value;\n    brokerStatus[msg.sender].status = brokerStatus_ActivePendingVote;\n  }\n\n  // Once voted = broker active\n\n// =====================================\n// User\n// =====================================\n\n  function getUser (string memory _phoneNumber) \n  public view\n  returns (uint)\n  {\n    return phoneNumberToBalance[_phoneNumber];\n  }\n\n  function fundUser (string memory _phoneNumber) \n  public payable\n  {\n    walletBalance += msg.value;\n    phoneNumberToBalance[_phoneNumber] += msg.value;\n  }\n\n  //TODO: multisig \n  function sendFundsToPhone(string memory _from, string memory _to, uint _amount)\n  public\n  {\n    require(phoneNumberToBalance[_from] >= _amount);\n    require(brokerStatus[msg.sender].status == brokerStatus_Active);\n    phoneNumberToBalance[_from] -= _amount;\n    phoneNumberToBalance[_to] += _amount;\n  }\n\n  function sendFundsToAddr(string memory _from, address payable _to, uint _amount)\n  public\n  {\n    require(phoneNumberToBalance[_from] >= _amount);\n    require(brokerStatus[msg.sender].status == brokerStatus_Active);\n\n    phoneNumberToBalance[_from] -= _amount; \n    _to.transfer(_amount);\n    walletBalance -= _amount;\n  }\n  \n}\n",
  "sourcePath": "/Users/paulzietsman/sourcery/ethcape/smart-contract/contracts/Thing.sol",
  "compiler": {
    "name": "solc",
    "version": "0.5.0+commit.1d4f565a.Emscripten.clang"
  },
  "schemaVersion": "3.0.6",
  "updatedAt": "2019-04-20T01:24:53.766Z",
  "devdoc": {
    "methods": {}
  },
  "userdoc": {
    "methods": {}
  }
}