{
  "contractName": "Thing",
  "abi": [
    {
      "constant": true,
      "inputs": [],
      "name": "owner",
      "outputs": [
        {
          "name": "",
          "type": "address"
        }
      ],
      "payable": false,
      "stateMutability": "view",
      "type": "function"
    },
    {
      "inputs": [],
      "payable": false,
      "stateMutability": "nonpayable",
      "type": "constructor"
    },
    {
      "anonymous": false,
      "inputs": [
        {
          "indexed": false,
          "name": "_from",
          "type": "string"
        }
      ],
      "name": "NewTransaction",
      "type": "event"
    },
    {
      "anonymous": false,
      "inputs": [
        {
          "indexed": false,
          "name": "_from",
          "type": "string"
        },
        {
          "indexed": false,
          "name": "_to",
          "type": "string"
        },
        {
          "indexed": false,
          "name": "_amount",
          "type": "uint256"
        }
      ],
      "name": "SuccessfulTransaction",
      "type": "event"
    },
    {
      "constant": true,
      "inputs": [],
      "name": "getWalletBalance",
      "outputs": [
        {
          "name": "",
          "type": "uint256"
        }
      ],
      "payable": false,
      "stateMutability": "view",
      "type": "function"
    },
    {
      "constant": true,
      "inputs": [],
      "name": "getBrokerStake",
      "outputs": [
        {
          "name": "",
          "type": "uint256"
        }
      ],
      "payable": false,
      "stateMutability": "view",
      "type": "function"
    },
    {
      "constant": true,
      "inputs": [
        {
          "name": "_newBroker",
          "type": "address"
        }
      ],
      "name": "getBroker",
      "outputs": [
        {
          "name": "",
          "type": "uint256"
        },
        {
          "name": "",
          "type": "uint256"
        },
        {
          "name": "",
          "type": "uint256"
        }
      ],
      "payable": false,
      "stateMutability": "view",
      "type": "function"
    },
    {
      "constant": false,
      "inputs": [
        {
          "name": "_newBroker",
          "type": "address"
        }
      ],
      "name": "addBroker",
      "outputs": [],
      "payable": false,
      "stateMutability": "nonpayable",
      "type": "function"
    },
    {
      "constant": false,
      "inputs": [],
      "name": "addBrokerStake",
      "outputs": [],
      "payable": true,
      "stateMutability": "payable",
      "type": "function"
    },
    {
      "constant": false,
      "inputs": [
        {
          "name": "_broker",
          "type": "address"
        }
      ],
      "name": "voteBrokerIn",
      "outputs": [],
      "payable": false,
      "stateMutability": "nonpayable",
      "type": "function"
    },
    {
      "constant": true,
      "inputs": [
        {
          "name": "_phoneNumber",
          "type": "string"
        }
      ],
      "name": "getUser",
      "outputs": [
        {
          "name": "",
          "type": "uint256"
        }
      ],
      "payable": false,
      "stateMutability": "view",
      "type": "function"
    },
    {
      "constant": false,
      "inputs": [
        {
          "name": "_phoneNumber",
          "type": "string"
        }
      ],
      "name": "fundUser",
      "outputs": [],
      "payable": true,
      "stateMutability": "payable",
      "type": "function"
    },
    {
      "constant": false,
      "inputs": [
        {
          "name": "_from",
          "type": "string"
        },
        {
          "name": "_to",
          "type": "string"
        },
        {
          "name": "_amount",
          "type": "uint256"
        }
      ],
      "name": "sendFundsToPhone",
      "outputs": [],
      "payable": false,
      "stateMutability": "nonpayable",
      "type": "function"
    },
    {
      "constant": false,
      "inputs": [
        {
          "name": "_from",
          "type": "string"
        },
        {
          "name": "_to",
          "type": "address"
        },
        {
          "name": "_amount",
          "type": "uint256"
        }
      ],
      "name": "sendFundsToAddr",
      "outputs": [],
      "payable": false,
      "stateMutability": "nonpayable",
      "type": "function"
    },
    {
      "constant": false,
      "inputs": [
        {
          "name": "_from",
          "type": "string"
        }
      ],
      "name": "voteForTransaction",
      "outputs": [],
      "payable": false,
      "stateMutability": "nonpayable",
      "type": "function"
    }
  ],
  "bytecode": "0x6080604052600160005560026001556001600255600260035560006005556000600655600f6009556004600a556003600b556064600c556001600e556002600f5560036010556004601155600560125534801561005b57600080fd5b5060048054600160a060020a031916331790556116728061007d6000396000f3fe6080604052600436106100b95763ffffffff7c010000000000000000000000000000000000000000000000000000000060003504166331feb67181146100be578063329a27e71461018357806335a984d214610198578063653bde121461024d578063795ed5131461030e5780637b9799c514610323578063836cae65146103c95780638da5cb5b146103fc5780639bc34d0b1461042d578063ba7deaa414610460578063d17248811461059c578063efa483bb146105ed575b600080fd5b3480156100ca57600080fd5b50610171600480360360208110156100e157600080fd5b8101906020810181356401000000008111156100fc57600080fd5b82018360208201111561010e57600080fd5b8035906020019184600183028401116401000000008311171561013057600080fd5b91908080601f0160208091040260200160405190810160405280939291908181526020018383808284376000920191909152509295506105f5945050505050565b60408051918252519081900360200190f35b34801561018f57600080fd5b5061017161065d565b3480156101a457600080fd5b5061024b600480360360208110156101bb57600080fd5b8101906020810181356401000000008111156101d657600080fd5b8201836020820111156101e857600080fd5b8035906020019184600183028401116401000000008311171561020a57600080fd5b91908080601f016020809104026020016040519081016040528093929190818152602001838380828437600092019190915250929550610664945050505050565b005b34801561025957600080fd5b5061024b6004803603606081101561027057600080fd5b81019060208101813564010000000081111561028b57600080fd5b82018360208201111561029d57600080fd5b803590602001918460018302840111640100000000831117156102bf57600080fd5b91908080601f01602080910402602001604051908101604052809392919081815260200183838082843760009201919091525092955050600160a060020a038335169350505060200135610d93565b34801561031a57600080fd5b506101716110dd565b61024b6004803603602081101561033957600080fd5b81019060208101813564010000000081111561035457600080fd5b82018360208201111561036657600080fd5b8035906020019184600183028401116401000000008311171561038857600080fd5b91908080601f0160208091040260200160405190810160405280939291908181526020018383808284376000920191909152509295506110e3945050505050565b3480156103d557600080fd5b5061024b600480360360208110156103ec57600080fd5b5035600160a060020a031661115b565b34801561040857600080fd5b506104116111b4565b60408051600160a060020a039092168252519081900360200190f35b34801561043957600080fd5b5061024b6004803603602081101561045057600080fd5b5035600160a060020a03166111c3565b34801561046c57600080fd5b5061024b6004803603606081101561048357600080fd5b81019060208101813564010000000081111561049e57600080fd5b8201836020820111156104b057600080fd5b803590602001918460018302840111640100000000831117156104d257600080fd5b91908080601f016020809104026020016040519081016040528093929190818152602001838380828437600092019190915250929594936020810193503591505064010000000081111561052557600080fd5b82018360208201111561053757600080fd5b8035906020019184600183028401116401000000008311171561055957600080fd5b91908080601f01602080910402602001604051908101604052809392919081815260200183838082843760009201919091525092955050913592506112bb915050565b3480156105a857600080fd5b506105cf600480360360208110156105bf57600080fd5b5035600160a060020a0316611539565b60408051938452602084019290925282820152519081900360600190f35b61024b611560565b60006007826040518082805190602001908083835b602083106106295780518252601f19909201916020918201910161060a565b51815160209384036101000a6000190180199092169116179052920194855250604051938490030190922054949350505050565b6005545b90565b601054336000908152600d60205260409020600201541461068457600080fd5b6001546008826040518082805190602001908083835b602083106106b95780518252601f19909201916020918201910161069a565b51815160209384036101000a60001901801990921691161790529201948552506040519384900301909220600201549290921491506106f9905057600080fd5b6008816040518082805190602001908083835b6020831061072b5780518252601f19909201916020918201910161070c565b51815160209384036101000a6000190180199092169116179052920194855250604080519485900382019094203360009081526007909101909152929092205460011415915061077c905057600080fd5b60016008826040518082805190602001908083835b602083106107b05780518252601f199092019160209182019101610791565b51815160209384036101000a600019018019909216911617905292019485525060405193849003810184206001018054959095019094555050600b5483519092600892859290918291908401908083835b602083106108205780518252601f199092019160209182019101610801565b51815160209384036101000a6000190180199092169116179052920194855250604051938490030190922060010154929092109150610d909050576000546008826040518082805190602001908083835b602083106108905780518252601f199092019160209182019101610871565b6001836020036101000a0380198251168184511680821785525050505050509050019150509081526020016040518091039020600201819055506002546008826040518082805190602001908083835b602083106108ff5780518252601f1990920191602091820191016108e0565b6001836020036101000a0380198251168184511680821785525050505050509050019150509081526020016040518091039020600601541415610b53576008816040518082805190602001908083835b6020831061096e5780518252601f19909201916020918201910161094f565b51815160209384036101000a60001901801990921691161790529201948552506040519384900381018420600301548551909460079450869350918291908401908083835b602083106109d25780518252601f1990920191602091820191016109b3565b51815160209384036101000a600019018019909216911617905292019485525060405193849003810184208054959095039094555050825160089284929182918401908083835b60208310610a385780518252601f199092019160209182019101610a19565b6001836020036101000a03801982511681845116808217855250505050505090500191505090815260200160405180910390206003015460076008836040518082805190602001908083835b60208310610aa35780518252601f199092019160209182019101610a84565b6001836020036101000a03801982511681845116808217855250505050505090500191505090815260200160405180910390206004016040518082805460018160011615610100020316600290048015610b345780601f10610b12576101008083540402835291820191610b34565b820191906000526020600020905b815481529060010190602001808311610b20575b5050928352505060405190819003602001902080549091019055610d90565b6008816040518082805190602001908083835b60208310610b855780518252601f199092019160209182019101610b66565b51815160209384036101000a6000190180199092169116179052920194855250604051938490038101842060030154600580549190910390558451600894869450925082918401908083835b60208310610bf05780518252601f199092019160209182019101610bd1565b51815160209384036101000a60001901801990921691161790529201948552506040519384900381018420600301548551909460079450869350918291908401908083835b60208310610c545780518252601f199092019160209182019101610c35565b51815160209384036101000a6000190180199092169116179052920194855250604051938490038101842080549590950390945550508251600092600892859290918291908401908083835b60208310610cbf5780518252601f199092019160209182019101610ca0565b51815160209384036101000a60001901801990921691161790529201948552506040519384900381018420600501548651600160a060020a03909116955085946108fc9450600893508792909182918401908083835b60208310610d345780518252601f199092019160209182019101610d15565b51815160209384036101000a600019018019909216911617905292019485525060405193849003018320600301548015949094029392915060009050818181858888f19350505050158015610d8d573d6000803e3d6000fd5b50505b50565b806007846040518082805190602001908083835b60208310610dc65780518252601f199092019160209182019101610da7565b51815160209384036101000a600019018019909216911617905292019485525060405193849003019092205492909210159150610e04905057600080fd5b601054336000908152600d602052604090206002015414610e2457600080fd5b60016008846040518082805190602001908083835b60208310610e585780518252601f199092019160209182019101610e39565b6001836020036101000a0380198251168184511680821785525050505050509050019150509081526020016040518091039020600101819055506001546008846040518082805190602001908083835b60208310610ec75780518252601f199092019160209182019101610ea8565b51815160209384036101000a6000190180199092169116179052920194855250604051938490038101842060020194909455505084518392600892879290918291908401908083835b60208310610f2f5780518252601f199092019160209182019101610f10565b51815160209384036101000a6000190180199092169116179052920194855250604051938490038101842060030194909455505084518492600892879290918291908401908083835b60208310610f975780518252601f199092019160209182019101610f78565b51815160209384036101000a60001901801990921691161790529201948552506040519384900381018420600501805473ffffffffffffffffffffffffffffffffffffffff1916600160a060020a039690961695909517909455505060035485519092600892879290918291908401908083835b6020831061102a5780518252601f19909201916020918201910161100b565b51815160209384036101000a600019018019909216911617905292019485525060405193849003810184206006019490945550508451600192600892879290918291908401908083835b602083106110935780518252601f199092019160209182019101611074565b51815160209384036101000a600019018019909216911617905292019485525060408051948590038201909420336000908152600790910190915292909220929092555050505050565b60065490565b600580543490810190915560405182516007918491819060208401908083835b602083106111225780518252601f199092019160209182019101611103565b51815160209384036101000a60001901801990921691161790529201948552506040519384900301909220805493909301909255505050565b600454600160a060020a031633141561119257601054600160a060020a0382166000908152600d6020526040902060020155610d90565b601254600160a060020a0382166000908152600d602052604090206002015550565b600454600160a060020a031681565b601154600160a060020a0382166000908152600d6020526040902060020154146111ec57600080fd5b600a54600160a060020a0382166000908152600d60205260409020600101541061121557600080fd5b601154600160a060020a0382166000908152600d60209081526040808320338452600301909152902054141561124a57600080fd5b336000818152600d602081815260408084206001908101805482019055601154600160a060020a03881680875283872097875260038801855292862055600a549190945291905291015410610d9057601054600160a060020a0382166000908152600d602052604090206002015550565b806007846040518082805190602001908083835b602083106112ee5780518252601f1990920191602091820191016112cf565b51815160209384036101000a60001901801990921691161790529201948552506040519384900301909220549290921015915061132c905057600080fd5b601054336000908152600d60205260409020600201541461134c57600080fd5b60016008846040518082805190602001908083835b602083106113805780518252601f199092019160209182019101611361565b6001836020036101000a0380198251168184511680821785525050505050509050019150509081526020016040518091039020600101819055506001546008846040518082805190602001908083835b602083106113ef5780518252601f1990920191602091820191016113d0565b51815160209384036101000a6000190180199092169116179052920194855250604051938490038101842060020194909455505084518392600892879290918291908401908083835b602083106114575780518252601f199092019160209182019101611438565b51815160209384036101000a6000190180199092169116179052920194855250604051938490038101842060030194909455505084518492600892879290918291908401908083835b602083106114bf5780518252601f1990920191602091820191016114a0565b51815160209384036101000a600019018019909216911617905292019485525060405193849003810190932084516115049560049092019491909101925090506115ae565b506002546008846040518082805190602001908083836020831061102a5780518252601f19909201916020918201910161100b565b600160a060020a03166000908152600d602052604090206002810154600182015491549092565b600954341461156e57600080fd5b601254336000908152600d60205260409020600201541461158e57600080fd5b6006805434019055601154336000908152600d6020526040902060020155565b828054600181600116156101000203166002900490600052602060002090601f016020900481019282601f106115ef57805160ff191683800117855561161c565b8280016001018555821561161c579182015b8281111561161c578251825591602001919060010190611601565b5061162892915061162c565b5090565b61066191905b80821115611628576000815560010161163256fea165627a7a72305820caa259ad01e6bb0cb6a2027efef133cd498c692b4bd00eeee0a7f18ce055575b0029",
  "source": "pragma solidity >=0.4.21 <0.6.0;\n\ncontract Thing {\n\n  struct BrokerStatus {\n      uint expiry;\n      uint votes;\n      uint status;\n      mapping (address => uint) voted;\n  }\n\n  struct PaymentStatus {\n      uint expiry;\n      uint votes;\n      uint status;\n      uint amount;\n      string toPhone;\n      address toAddress;\n      uint paymentType;\n      mapping (address => uint) voted;\n  }\n\n  uint PAYMENT_STATUS_PAID = 1;\n  uint PAYMENT_STATUS_PENDING = 2;\n\n  uint PAYMENT_TYPE_PHONE = 1;\n  uint PAYMENT_TYPE_ADDRESS = 2;\n\n  address public owner;\n\n  uint walletBalance = 0;\n  uint brokerStake = 0;\n\n  mapping (string => uint) phoneNumberToBalance;\n  mapping (string => PaymentStatus) pendingPayment;\n  \n  uint STAKE = 15;\n  uint NEW_BROKER_VOTES_REQUIRE = 4;\n  uint TRANSACTION_VOTES_REQUIRE = 3;\n  uint TRANSACTION_TIMEOUT = 100;\n\n  mapping (address => BrokerStatus) brokerStatus;\n\n  uint brokerStatus_Banned = 1;\n  uint brokerStatus_BannedPending = 2;\n\n  uint brokerStatus_Active = 3;\n  uint brokerStatus_ActivePendingVote = 4;\n  uint brokerStatus_ActivePendingStake = 5;\n\n  constructor() public {\n    owner = msg.sender;\n  }\n\n\n  function getWalletBalance()\n  public view  \n  returns (uint)\n  {\n    return walletBalance;\n  }\n\n  function getBrokerStake()\n  public view  \n  returns (uint)\n  {\n    return brokerStake;\n  }\n\n// =====================================\n// Broker\n// =====================================\n\n  function getBroker(address _newBroker)\n  public view  \n  returns (uint,uint, uint)\n  {\n    return (brokerStatus[_newBroker].status, brokerStatus[_newBroker].votes ,brokerStatus[_newBroker].expiry );\n  }\n\n  function addBroker(address _newBroker)\n  public \n  {\n    if(msg.sender == owner) {\n      brokerStatus[_newBroker].status = brokerStatus_Active;\n    } else {\n      brokerStatus[_newBroker].status = brokerStatus_ActivePendingStake;\n    }\n  }\n\n  function addBrokerStake()\n  public payable\n  {\n    require(msg.value == STAKE);\n    require(brokerStatus[msg.sender].status == brokerStatus_ActivePendingStake);\n\n    brokerStake += msg.value;\n    brokerStatus[msg.sender].status = brokerStatus_ActivePendingVote;\n  }\n\n  function voteBrokerIn(address _broker)\n  public\n  {\n    require(brokerStatus[_broker].status == brokerStatus_ActivePendingVote);\n    require(brokerStatus[_broker].votes < NEW_BROKER_VOTES_REQUIRE);\n    require(brokerStatus[_broker].voted[msg.sender] != brokerStatus_ActivePendingVote);\n\n    brokerStatus[msg.sender].votes += 1;\n    brokerStatus[_broker].voted[msg.sender] = brokerStatus_ActivePendingVote;\n\n    if(brokerStatus[_broker].votes >= NEW_BROKER_VOTES_REQUIRE) {\n        brokerStatus[_broker].status = brokerStatus_Active;\n    }\n  }\n\n  // Once voted = broker active\n\n// =====================================\n// User\n// =====================================\n\n  function getUser (string memory _phoneNumber) \n  public view\n  returns (uint)\n  {\n    return phoneNumberToBalance[_phoneNumber];\n  }\n\n  function fundUser (string memory _phoneNumber) \n  public payable\n  {\n    walletBalance += msg.value;\n    phoneNumberToBalance[_phoneNumber] += msg.value;\n  }\n\n  function sendFundsToPhone(string memory _from, string memory _to, uint _amount)\n  public\n  {\n    require(phoneNumberToBalance[_from] >= _amount);\n    require(brokerStatus[msg.sender].status == brokerStatus_Active);\n\n    pendingPayment[_from].votes = 1;\n    pendingPayment[_from].status = PAYMENT_STATUS_PENDING;\n    pendingPayment[_from].amount = _amount;\n    pendingPayment[_from].toPhone = _to;\n    pendingPayment[_from].paymentType = PAYMENT_TYPE_PHONE;\n    pendingPayment[_from].voted[msg.sender] = 1;\n\n  }\n\n  function sendFundsToAddr(string memory _from, address _to, uint _amount)\n  public\n  {\n    require(phoneNumberToBalance[_from] >= _amount);\n    require(brokerStatus[msg.sender].status == brokerStatus_Active);\n\n    pendingPayment[_from].votes = 1;\n    pendingPayment[_from].status = PAYMENT_STATUS_PENDING;\n    pendingPayment[_from].amount = _amount;\n    pendingPayment[_from].toAddress = _to;\n    pendingPayment[_from].paymentType = PAYMENT_TYPE_ADDRESS;\n    pendingPayment[_from].voted[msg.sender] = 1;\n  }\n  \n\n    \n  function voteForTransaction(string memory _from)\n  public\n  {\n    require(brokerStatus[msg.sender].status == brokerStatus_Active);\n    require(pendingPayment[_from].status == PAYMENT_STATUS_PENDING);\n    require(pendingPayment[_from].voted[msg.sender] != 1);\n\n    pendingPayment[_from].votes += 1;\n\n    if(pendingPayment[_from].votes >= TRANSACTION_VOTES_REQUIRE) {\n        pendingPayment[_from].status = PAYMENT_STATUS_PAID;\n\n        if(pendingPayment[_from].paymentType == PAYMENT_TYPE_PHONE) {\n            phoneNumberToBalance[_from] -= pendingPayment[_from].amount; \n            phoneNumberToBalance[pendingPayment[_from].toPhone] += pendingPayment[_from].amount; \n        } else {\n            walletBalance -= pendingPayment[_from].amount;          \n            phoneNumberToBalance[_from] -= pendingPayment[_from].amount; \n\n            address payable to = address(uint160(pendingPayment[_from].toAddress)); \n            to.transfer(pendingPayment[_from].amount);\n        }\n    }\n\n  }\n}\n",
  "sourcePath": "/home/josh/git-personal/ethcape/smart-contract/contracts/Thing.sol",
  "compiler": {
    "name": "solc",
    "version": "0.5.0+commit.1d4f565a.Emscripten.clang"
  },
  "schemaVersion": "3.0.6",
  "updatedAt": "2019-04-20T08:48:18.726Z",
  "devdoc": {
    "methods": {}
  },
  "userdoc": {
    "methods": {}
  }
}