{
  "contractName": "Thing",
  "abi": [
    {
      "constant": true,
      "inputs": [],
      "name": "owner",
      "outputs": [
        {
          "name": "",
          "type": "address"
        }
      ],
      "payable": false,
      "stateMutability": "view",
      "type": "function"
    },
    {
      "inputs": [],
      "payable": false,
      "stateMutability": "nonpayable",
      "type": "constructor"
    },
    {
      "anonymous": false,
      "inputs": [
        {
          "indexed": false,
          "name": "_from",
          "type": "string"
        }
      ],
      "name": "NewTransaction",
      "type": "event"
    },
    {
      "anonymous": false,
      "inputs": [
        {
          "indexed": false,
          "name": "_from",
          "type": "string"
        },
        {
          "indexed": false,
          "name": "_to",
          "type": "string"
        },
        {
          "indexed": false,
          "name": "_amount",
          "type": "uint256"
        }
      ],
      "name": "SuccessfulTransaction",
      "type": "event"
    },
    {
      "constant": true,
      "inputs": [],
      "name": "getWalletBalance",
      "outputs": [
        {
          "name": "",
          "type": "uint256"
        }
      ],
      "payable": false,
      "stateMutability": "view",
      "type": "function"
    },
    {
      "constant": true,
      "inputs": [],
      "name": "getBrokerStake",
      "outputs": [
        {
          "name": "",
          "type": "uint256"
        }
      ],
      "payable": false,
      "stateMutability": "view",
      "type": "function"
    },
    {
      "constant": true,
      "inputs": [
        {
          "name": "_newBroker",
          "type": "address"
        }
      ],
      "name": "getBroker",
      "outputs": [
        {
          "name": "",
          "type": "uint256"
        },
        {
          "name": "",
          "type": "uint256"
        },
        {
          "name": "",
          "type": "uint256"
        }
      ],
      "payable": false,
      "stateMutability": "view",
      "type": "function"
    },
    {
      "constant": false,
      "inputs": [
        {
          "name": "_newBroker",
          "type": "address"
        }
      ],
      "name": "addBroker",
      "outputs": [],
      "payable": false,
      "stateMutability": "nonpayable",
      "type": "function"
    },
    {
      "constant": false,
      "inputs": [],
      "name": "addBrokerStake",
      "outputs": [],
      "payable": true,
      "stateMutability": "payable",
      "type": "function"
    },
    {
      "constant": false,
      "inputs": [
        {
          "name": "_broker",
          "type": "address"
        }
      ],
      "name": "voteBrokerIn",
      "outputs": [],
      "payable": false,
      "stateMutability": "nonpayable",
      "type": "function"
    },
    {
      "constant": true,
      "inputs": [
        {
          "name": "_phoneNumber",
          "type": "string"
        }
      ],
      "name": "getUser",
      "outputs": [
        {
          "name": "",
          "type": "uint256"
        }
      ],
      "payable": false,
      "stateMutability": "view",
      "type": "function"
    },
    {
      "constant": false,
      "inputs": [
        {
          "name": "_phoneNumber",
          "type": "string"
        }
      ],
      "name": "fundUser",
      "outputs": [],
      "payable": true,
      "stateMutability": "payable",
      "type": "function"
    },
    {
      "constant": false,
      "inputs": [
        {
          "name": "_from",
          "type": "string"
        },
        {
          "name": "_to",
          "type": "string"
        },
        {
          "name": "_amount",
          "type": "uint256"
        }
      ],
      "name": "sendFundsToPhone",
      "outputs": [],
      "payable": false,
      "stateMutability": "nonpayable",
      "type": "function"
    },
    {
      "constant": false,
      "inputs": [
        {
          "name": "_from",
          "type": "string"
        },
        {
          "name": "_to",
          "type": "address"
        },
        {
          "name": "_amount",
          "type": "uint256"
        }
      ],
      "name": "sendFundsToAddr",
      "outputs": [],
      "payable": false,
      "stateMutability": "nonpayable",
      "type": "function"
    },
    {
      "constant": false,
      "inputs": [
        {
          "name": "_from",
          "type": "string"
        }
      ],
      "name": "voteForTransaction",
      "outputs": [],
      "payable": false,
      "stateMutability": "nonpayable",
      "type": "function"
    }
  ],
  "bytecode": "0x608060405260016000556002600155600160025560026003556000600555600060065560006009556000600a556000600b556000600c556001600e556002600f5560036010556004601155600560125534801561005b57600080fd5b5060048054600160a060020a0319163390811790915561008390640100000000610088810204565b6100e2565b600454600160a060020a03163314156100bf57601054600160a060020a0382166000908152600d60205260409020600201556100df565b601254600160a060020a0382166000908152600d60205260409020600201555b50565b61199d806100f16000396000f3fe6080604052600436106100b95763ffffffff7c010000000000000000000000000000000000000000000000000000000060003504166331feb67181146100be578063329a27e71461018357806335a984d214610198578063653bde121461024d578063795ed5131461030e5780637b9799c514610323578063836cae65146103c95780638da5cb5b146103fc5780639bc34d0b1461042d578063ba7deaa414610460578063d17248811461059c578063efa483bb146105ed575b600080fd5b3480156100ca57600080fd5b50610171600480360360208110156100e157600080fd5b8101906020810181356401000000008111156100fc57600080fd5b82018360208201111561010e57600080fd5b8035906020019184600183028401116401000000008311171561013057600080fd5b91908080601f0160208091040260200160405190810160405280939291908181526020018383808284376000920191909152509295506105f5945050505050565b60408051918252519081900360200190f35b34801561018f57600080fd5b5061017161065d565b3480156101a457600080fd5b5061024b600480360360208110156101bb57600080fd5b8101906020810181356401000000008111156101d657600080fd5b8201836020820111156101e857600080fd5b8035906020019184600183028401116401000000008311171561020a57600080fd5b91908080601f016020809104026020016040519081016040528093929190818152602001838380828437600092019190915250929550610664945050505050565b005b34801561025957600080fd5b5061024b6004803603606081101561027057600080fd5b81019060208101813564010000000081111561028b57600080fd5b82018360208201111561029d57600080fd5b803590602001918460018302840111640100000000831117156102bf57600080fd5b91908080601f01602080910402602001604051908101604052809392919081815260200183838082843760009201919091525092955050600160a060020a038335169350505060200135610f7b565b34801561031a57600080fd5b506101716112c5565b61024b6004803603602081101561033957600080fd5b81019060208101813564010000000081111561035457600080fd5b82018360208201111561036657600080fd5b8035906020019184600183028401116401000000008311171561038857600080fd5b91908080601f0160208091040260200160405190810160405280939291908181526020018383808284376000920191909152509295506112cb945050505050565b3480156103d557600080fd5b5061024b600480360360208110156103ec57600080fd5b5035600160a060020a0316611343565b34801561040857600080fd5b5061041161139c565b60408051600160a060020a039092168252519081900360200190f35b34801561043957600080fd5b5061024b6004803603602081101561045057600080fd5b5035600160a060020a03166113ab565b34801561046c57600080fd5b5061024b6004803603606081101561048357600080fd5b81019060208101813564010000000081111561049e57600080fd5b8201836020820111156104b057600080fd5b803590602001918460018302840111640100000000831117156104d257600080fd5b91908080601f016020809104026020016040519081016040528093929190818152602001838380828437600092019190915250929594936020810193503591505064010000000081111561052557600080fd5b82018360208201111561053757600080fd5b8035906020019184600183028401116401000000008311171561055957600080fd5b91908080601f01602080910402602001604051908101604052809392919081815260200183838082843760009201919091525092955050913592506114a3915050565b3480156105a857600080fd5b506105cf600480360360208110156105bf57600080fd5b5035600160a060020a0316611864565b60408051938452602084019290925282820152519081900360600190f35b61024b61188b565b60006007826040518082805190602001908083835b602083106106295780518252601f19909201916020918201910161060a565b51815160209384036101000a6000190180199092169116179052920194855250604051938490030190922054949350505050565b6005545b90565b601054336000908152600d60205260409020600201541461068457600080fd5b6001546008826040518082805190602001908083835b602083106106b95780518252601f19909201916020918201910161069a565b51815160209384036101000a60001901801990921691161790529201948552506040519384900301909220600201549290921491506106f9905057600080fd5b6008816040518082805190602001908083835b6020831061072b5780518252601f19909201916020918201910161070c565b51815160209384036101000a6000190180199092169116179052920194855250604080519485900382019094203360009081526007909101909152929092205460011415915061077c905057600080fd5b60016008826040518082805190602001908083835b602083106107b05780518252601f199092019160209182019101610791565b51815160209384036101000a600019018019909216911617905292019485525060405193849003810184206001018054959095019094555050600b5483519092600892859290918291908401908083835b602083106108205780518252601f199092019160209182019101610801565b51815160209384036101000a6000190180199092169116179052920194855250604051938490030190922060010154929092109150610f789050576000546008826040518082805190602001908083835b602083106108905780518252601f199092019160209182019101610871565b6001836020036101000a0380198251168184511680821785525050505050509050019150509081526020016040518091039020600201819055506002546008826040518082805190602001908083835b602083106108ff5780518252601f1990920191602091820191016108e0565b6001836020036101000a0380198251168184511680821785525050505050509050019150509081526020016040518091039020600601541415610d3b576008816040518082805190602001908083835b6020831061096e5780518252601f19909201916020918201910161094f565b51815160209384036101000a60001901801990921691161790529201948552506040519384900381018420600301548551909460079450869350918291908401908083835b602083106109d25780518252601f1990920191602091820191016109b3565b51815160209384036101000a600019018019909216911617905292019485525060405193849003810184208054959095039094555050825160089284929182918401908083835b60208310610a385780518252601f199092019160209182019101610a19565b6001836020036101000a03801982511681845116808217855250505050505090500191505090815260200160405180910390206003015460076008836040518082805190602001908083835b60208310610aa35780518252601f199092019160209182019101610a84565b6001836020036101000a03801982511681845116808217855250505050505090500191505090815260200160405180910390206004016040518082805460018160011615610100020316600290048015610b345780601f10610b12576101008083540402835291820191610b34565b820191906000526020600020905b815481529060010190602001808311610b20575b50509150509081526020016040518091039020600082825401925050819055507fc4395c14b37bd5474c18e98d6da2ca2f25393ebe7b79b50a567825e31338482a816008836040518082805190602001908083835b60208310610ba85780518252601f199092019160209182019101610b89565b6001836020036101000a03801982511681845116808217855250505050505090500191505090815260200160405180910390206004016008846040518082805190602001908083835b60208310610c105780518252601f199092019160209182019101610bf1565b51815160209384036101000a60001901801990921691161790529201948552506040805194859003820185206003015490850181905260608086528751908601528651909493508392508282019160808401919088019080838360005b83811015610c85578181015183820152602001610c6d565b50505050905090810190601f168015610cb25780820380516001836020036101000a031916815260200191505b50838103825285546002600019610100600184161502019091160480825260209091019086908015610d255780601f10610cfa57610100808354040283529160200191610d25565b820191906000526020600020905b815481529060010190602001808311610d0857829003601f168201915b50509550505050505060405180910390a1610f78565b6008816040518082805190602001908083835b60208310610d6d5780518252601f199092019160209182019101610d4e565b51815160209384036101000a6000190180199092169116179052920194855250604051938490038101842060030154600580549190910390558451600894869450925082918401908083835b60208310610dd85780518252601f199092019160209182019101610db9565b51815160209384036101000a60001901801990921691161790529201948552506040519384900381018420600301548551909460079450869350918291908401908083835b60208310610e3c5780518252601f199092019160209182019101610e1d565b51815160209384036101000a6000190180199092169116179052920194855250604051938490038101842080549590950390945550508251600092600892859290918291908401908083835b60208310610ea75780518252601f199092019160209182019101610e88565b51815160209384036101000a60001901801990921691161790529201948552506040519384900381018420600501548651600160a060020a03909116955085946108fc9450600893508792909182918401908083835b60208310610f1c5780518252601f199092019160209182019101610efd565b51815160209384036101000a600019018019909216911617905292019485525060405193849003018320600301548015949094029392915060009050818181858888f19350505050158015610f75573d6000803e3d6000fd5b50505b50565b806007846040518082805190602001908083835b60208310610fae5780518252601f199092019160209182019101610f8f565b51815160209384036101000a600019018019909216911617905292019485525060405193849003019092205492909210159150610fec905057600080fd5b601054336000908152600d60205260409020600201541461100c57600080fd5b60016008846040518082805190602001908083835b602083106110405780518252601f199092019160209182019101611021565b6001836020036101000a0380198251168184511680821785525050505050509050019150509081526020016040518091039020600101819055506001546008846040518082805190602001908083835b602083106110af5780518252601f199092019160209182019101611090565b51815160209384036101000a6000190180199092169116179052920194855250604051938490038101842060020194909455505084518392600892879290918291908401908083835b602083106111175780518252601f1990920191602091820191016110f8565b51815160209384036101000a6000190180199092169116179052920194855250604051938490038101842060030194909455505084518492600892879290918291908401908083835b6020831061117f5780518252601f199092019160209182019101611160565b51815160209384036101000a60001901801990921691161790529201948552506040519384900381018420600501805473ffffffffffffffffffffffffffffffffffffffff1916600160a060020a039690961695909517909455505060035485519092600892879290918291908401908083835b602083106112125780518252601f1990920191602091820191016111f3565b51815160209384036101000a600019018019909216911617905292019485525060405193849003810184206006019490945550508451600192600892879290918291908401908083835b6020831061127b5780518252601f19909201916020918201910161125c565b51815160209384036101000a600019018019909216911617905292019485525060408051948590038201909420336000908152600790910190915292909220929092555050505050565b60065490565b600580543490810190915560405182516007918491819060208401908083835b6020831061130a5780518252601f1990920191602091820191016112eb565b51815160209384036101000a60001901801990921691161790529201948552506040519384900301909220805493909301909255505050565b600454600160a060020a031633141561137a57601054600160a060020a0382166000908152600d6020526040902060020155610f78565b601254600160a060020a0382166000908152600d602052604090206002015550565b600454600160a060020a031681565b601154600160a060020a0382166000908152600d6020526040902060020154146113d457600080fd5b600a54600160a060020a0382166000908152600d6020526040902060010154106113fd57600080fd5b601154600160a060020a0382166000908152600d60209081526040808320338452600301909152902054141561143257600080fd5b336000818152600d602081815260408084206001908101805482019055601154600160a060020a03881680875283872097875260038801855292862055600a549190945291905291015410610f7857601054600160a060020a0382166000908152600d602052604090206002015550565b806007846040518082805190602001908083835b602083106114d65780518252601f1990920191602091820191016114b7565b51815160209384036101000a600019018019909216911617905292019485525060405193849003019092205492909210159150611514905057600080fd5b601054336000908152600d60205260409020600201541461153457600080fd5b60016008846040518082805190602001908083835b602083106115685780518252601f199092019160209182019101611549565b6001836020036101000a0380198251168184511680821785525050505050509050019150509081526020016040518091039020600101819055506001546008846040518082805190602001908083835b602083106115d75780518252601f1990920191602091820191016115b8565b51815160209384036101000a6000190180199092169116179052920194855250604051938490038101842060020194909455505084518392600892879290918291908401908083835b6020831061163f5780518252601f199092019160209182019101611620565b51815160209384036101000a6000190180199092169116179052920194855250604051938490038101842060030194909455505084518492600892879290918291908401908083835b602083106116a75780518252601f199092019160209182019101611688565b51815160209384036101000a600019018019909216911617905292019485525060405193849003810190932084516116ec9560049092019491909101925090506118d9565b506002546008846040518082805190602001908083835b602083106117225780518252601f199092019160209182019101611703565b51815160209384036101000a600019018019909216911617905292019485525060405193849003810184206006019490945550508451600192600892879290918291908401908083835b6020831061178b5780518252601f19909201916020918201910161176c565b51815160209384036101000a6000190180199092169116179052920194855250604080519485900382018520336000908152600790910183528181209690965581855288518583015288517f08f81b6e9109fad00df4c1e4c8017ba4cb67013034439d71e57399c83aa23f3c968a969550859450918401928601918190849084905b8381101561182557818101518382015260200161180d565b50505050905090810190601f1680156118525780820380516001836020036101000a031916815260200191505b509250505060405180910390a1505050565b600160a060020a03166000908152600d602052604090206002810154600182015491549092565b600954341461189957600080fd5b601254336000908152600d6020526040902060020154146118b957600080fd5b6006805434019055601154336000908152600d6020526040902060020155565b828054600181600116156101000203166002900490600052602060002090601f016020900481019282601f1061191a57805160ff1916838001178555611947565b82800160010185558215611947579182015b8281111561194757825182559160200191906001019061192c565b50611953929150611957565b5090565b61066191905b80821115611953576000815560010161195d56fea165627a7a72305820ed94aff4eb4507f6c9dd14d5b8b4296c6dc01d68f7b801edcc6c24d04eb5518a0029",
  "source": "pragma solidity >=0.4.21 <0.6.0;\n\ncontract Thing {\n\n  struct BrokerStatus {\n      uint expiry;\n      uint votes;\n      uint status;\n      mapping (address => uint) voted;\n  }\n\n  struct PaymentStatus {\n      uint expiry;\n      uint votes;\n      uint status;\n      uint amount;\n      string toPhone;\n      address toAddress;\n      uint paymentType;\n      mapping (address => uint) voted;\n  }\n\n  uint PAYMENT_STATUS_PAID = 1;\n  uint PAYMENT_STATUS_PENDING = 2;\n\n  uint PAYMENT_TYPE_PHONE = 1;\n  uint PAYMENT_TYPE_ADDRESS = 2;\n\n  address public owner;\n\n  uint walletBalance = 0;\n  uint brokerStake = 0;\n\n  mapping (string => uint) phoneNumberToBalance;\n  mapping (string => PaymentStatus) pendingPayment;\n  \n  uint STAKE = 0;\n  uint NEW_BROKER_VOTES_REQUIRE = 0;\n  uint TRANSACTION_VOTES_REQUIRE = 0;\n  uint TRANSACTION_TIMEOUT = 0;\n\n  mapping (address => BrokerStatus) brokerStatus;\n\n  uint brokerStatus_Banned = 1;\n  uint brokerStatus_BannedPending = 2;\n\n  uint brokerStatus_Active = 3;\n  uint brokerStatus_ActivePendingVote = 4;\n  uint brokerStatus_ActivePendingStake = 5;\n\n  event NewTransaction(string _from);\n  event SuccessfulTransaction(string _from, string _to, uint _amount);\n\n  constructor() public {\n    owner = msg.sender;\n    addBroker(msg.sender);\n  }\n\n\n  function getWalletBalance()\n  public view  \n  returns (uint)\n  {\n    return walletBalance;\n  }\n\n  function getBrokerStake()\n  public view  \n  returns (uint)\n  {\n    return brokerStake;\n  }\n\n// =====================================\n// Broker\n// =====================================\n\n  function getBroker(address _newBroker)\n  public view  \n  returns (uint,uint, uint)\n  {\n    return (brokerStatus[_newBroker].status, brokerStatus[_newBroker].votes ,brokerStatus[_newBroker].expiry );\n  }\n\n  function addBroker(address _newBroker)\n  public \n  {\n    if(msg.sender == owner) {\n      brokerStatus[_newBroker].status = brokerStatus_Active;\n    } else {\n      brokerStatus[_newBroker].status = brokerStatus_ActivePendingStake;\n    }\n  }\n\n  function addBrokerStake()\n  public payable\n  {\n    require(msg.value == STAKE);\n    require(brokerStatus[msg.sender].status == brokerStatus_ActivePendingStake);\n\n    brokerStake += msg.value;\n    brokerStatus[msg.sender].status = brokerStatus_ActivePendingVote;\n  }\n\n  function voteBrokerIn(address _broker)\n  public\n  {\n    require(brokerStatus[_broker].status == brokerStatus_ActivePendingVote);\n    require(brokerStatus[_broker].votes < NEW_BROKER_VOTES_REQUIRE);\n    require(brokerStatus[_broker].voted[msg.sender] != brokerStatus_ActivePendingVote);\n\n    brokerStatus[msg.sender].votes += 1;\n    brokerStatus[_broker].voted[msg.sender] = brokerStatus_ActivePendingVote;\n\n    if(brokerStatus[_broker].votes >= NEW_BROKER_VOTES_REQUIRE) {\n        brokerStatus[_broker].status = brokerStatus_Active;\n    }\n  }\n\n  // Once voted = broker active\n\n// =====================================\n// User\n// =====================================\n\n  function getUser (string memory _phoneNumber) \n  public view\n  returns (uint)\n  {\n    return phoneNumberToBalance[_phoneNumber];\n  }\n\n  function fundUser (string memory _phoneNumber) \n  public payable\n  {\n    walletBalance += msg.value;\n    phoneNumberToBalance[_phoneNumber] += msg.value;\n  }\n\n  function sendFundsToPhone(string memory _from, string memory _to, uint _amount)\n  public\n  {\n    require(phoneNumberToBalance[_from] >= _amount);\n    require(brokerStatus[msg.sender].status == brokerStatus_Active);\n\n    pendingPayment[_from].votes = 1;\n    pendingPayment[_from].status = PAYMENT_STATUS_PENDING;\n    pendingPayment[_from].amount = _amount;\n    pendingPayment[_from].toPhone = _to;\n    pendingPayment[_from].paymentType = PAYMENT_TYPE_PHONE;\n    pendingPayment[_from].voted[msg.sender] = 1;\n\n    emit NewTransaction(_from);\n\n  }\n\n  function sendFundsToAddr(string memory _from, address _to, uint _amount)\n  public\n  {\n    require(phoneNumberToBalance[_from] >= _amount);\n    require(brokerStatus[msg.sender].status == brokerStatus_Active);\n\n    pendingPayment[_from].votes = 1;\n    pendingPayment[_from].status = PAYMENT_STATUS_PENDING;\n    pendingPayment[_from].amount = _amount;\n    pendingPayment[_from].toAddress = _to;\n    pendingPayment[_from].paymentType = PAYMENT_TYPE_ADDRESS;\n    pendingPayment[_from].voted[msg.sender] = 1;\n  }\n  \n\n    \n  function voteForTransaction(string memory _from)\n  public\n  {\n    require(brokerStatus[msg.sender].status == brokerStatus_Active);\n    require(pendingPayment[_from].status == PAYMENT_STATUS_PENDING);\n    require(pendingPayment[_from].voted[msg.sender] != 1);\n\n    pendingPayment[_from].votes += 1;\n\n    if(pendingPayment[_from].votes >= TRANSACTION_VOTES_REQUIRE) {\n        pendingPayment[_from].status = PAYMENT_STATUS_PAID;\n\n        if(pendingPayment[_from].paymentType == PAYMENT_TYPE_PHONE) {\n            phoneNumberToBalance[_from] -= pendingPayment[_from].amount; \n            phoneNumberToBalance[pendingPayment[_from].toPhone] += pendingPayment[_from].amount;\n            emit SuccessfulTransaction(_from, pendingPayment[_from].toPhone, pendingPayment[_from].amount); \n        } else {\n            walletBalance -= pendingPayment[_from].amount;          \n            phoneNumberToBalance[_from] -= pendingPayment[_from].amount; \n\n            address payable to = address(uint160(pendingPayment[_from].toAddress)); \n            to.transfer(pendingPayment[_from].amount);\n        }\n    }\n\n  }\n}\n",
  "sourcePath": "/Users/paulzietsman/sourcery/ethcape/smart-contract/contracts/Thing.sol",
  "compiler": {
    "name": "solc",
    "version": "0.5.0+commit.1d4f565a.Emscripten.clang"
  },
  "schemaVersion": "2.0.2",
  "updatedAt": "2019-04-20T23:11:34.858Z"
}